{
  "_format": "hh-sol-artifact-1",
  "contractName": "Voting",
  "sourceName": "contracts/Voting.sol",
  "abi": [
    {
      "inputs": [],
      "stateMutability": "nonpayable",
      "type": "constructor"
    },
    {
      "anonymous": false,
      "inputs": [
        {
          "indexed": true,
          "internalType": "uint256",
          "name": "electionId",
          "type": "uint256"
        },
        {
          "indexed": true,
          "internalType": "uint256",
          "name": "candidateId",
          "type": "uint256"
        },
        {
          "indexed": false,
          "internalType": "string",
          "name": "name",
          "type": "string"
        }
      ],
      "name": "CandidateAdded",
      "type": "event"
    },
    {
      "anonymous": false,
      "inputs": [
        {
          "indexed": true,
          "internalType": "uint256",
          "name": "electionId",
          "type": "uint256"
        }
      ],
      "name": "ElectionClosed",
      "type": "event"
    },
    {
      "anonymous": false,
      "inputs": [
        {
          "indexed": true,
          "internalType": "uint256",
          "name": "electionId",
          "type": "uint256"
        },
        {
          "indexed": false,
          "internalType": "string",
          "name": "title",
          "type": "string"
        }
      ],
      "name": "ElectionCreated",
      "type": "event"
    },
    {
      "anonymous": false,
      "inputs": [
        {
          "indexed": true,
          "internalType": "address",
          "name": "previousOwner",
          "type": "address"
        },
        {
          "indexed": true,
          "internalType": "address",
          "name": "newOwner",
          "type": "address"
        }
      ],
      "name": "OwnershipTransferred",
      "type": "event"
    },
    {
      "anonymous": false,
      "inputs": [
        {
          "indexed": true,
          "internalType": "uint256",
          "name": "electionId",
          "type": "uint256"
        },
        {
          "indexed": true,
          "internalType": "uint256",
          "name": "candidateId",
          "type": "uint256"
        },
        {
          "indexed": false,
          "internalType": "address",
          "name": "voter",
          "type": "address"
        }
      ],
      "name": "Voted",
      "type": "event"
    },
    {
      "inputs": [
        {
          "internalType": "address",
          "name": "_admin",
          "type": "address"
        }
      ],
      "name": "addAdmin",
      "outputs": [],
      "stateMutability": "nonpayable",
      "type": "function"
    },
    {
      "inputs": [
        {
          "internalType": "uint256",
          "name": "_electionId",
          "type": "uint256"
        },
        {
          "internalType": "string",
          "name": "_name",
          "type": "string"
        }
      ],
      "name": "addCandidate",
      "outputs": [],
      "stateMutability": "nonpayable",
      "type": "function"
    },
    {
      "inputs": [
        {
          "internalType": "address",
          "name": "",
          "type": "address"
        }
      ],
      "name": "admins",
      "outputs": [
        {
          "internalType": "bool",
          "name": "",
          "type": "bool"
        }
      ],
      "stateMutability": "view",
      "type": "function"
    },
    {
      "inputs": [
        {
          "internalType": "uint256",
          "name": "_electionId",
          "type": "uint256"
        }
      ],
      "name": "closeElection",
      "outputs": [],
      "stateMutability": "nonpayable",
      "type": "function"
    },
    {
      "inputs": [
        {
          "internalType": "string",
          "name": "_title",
          "type": "string"
        },
        {
          "internalType": "string",
          "name": "_department",
          "type": "string"
        },
        {
          "internalType": "string",
          "name": "_description",
          "type": "string"
        },
        {
          "internalType": "uint256",
          "name": "_startTime",
          "type": "uint256"
        },
        {
          "internalType": "uint256",
          "name": "_endTime",
          "type": "uint256"
        }
      ],
      "name": "createElection",
      "outputs": [],
      "stateMutability": "nonpayable",
      "type": "function"
    },
    {
      "inputs": [
        {
          "internalType": "uint256",
          "name": "",
          "type": "uint256"
        }
      ],
      "name": "elections",
      "outputs": [
        {
          "internalType": "uint256",
          "name": "id",
          "type": "uint256"
        },
        {
          "internalType": "string",
          "name": "title",
          "type": "string"
        },
        {
          "internalType": "string",
          "name": "department",
          "type": "string"
        },
        {
          "internalType": "string",
          "name": "description",
          "type": "string"
        },
        {
          "internalType": "uint256",
          "name": "startTime",
          "type": "uint256"
        },
        {
          "internalType": "uint256",
          "name": "endTime",
          "type": "uint256"
        },
        {
          "internalType": "bool",
          "name": "isActive",
          "type": "bool"
        },
        {
          "internalType": "uint256",
          "name": "candidatesCount",
          "type": "uint256"
        }
      ],
      "stateMutability": "view",
      "type": "function"
    },
    {
      "inputs": [
        {
          "internalType": "uint256",
          "name": "_electionId",
          "type": "uint256"
        },
        {
          "internalType": "uint256",
          "name": "_candidateId",
          "type": "uint256"
        }
      ],
      "name": "getCandidate",
      "outputs": [
        {
          "internalType": "uint256",
          "name": "id",
          "type": "uint256"
        },
        {
          "internalType": "string",
          "name": "name",
          "type": "string"
        },
        {
          "internalType": "uint256",
          "name": "voteCount",
          "type": "uint256"
        }
      ],
      "stateMutability": "view",
      "type": "function"
    },
    {
      "inputs": [
        {
          "internalType": "uint256",
          "name": "_electionId",
          "type": "uint256"
        }
      ],
      "name": "getElection",
      "outputs": [
        {
          "internalType": "uint256",
          "name": "id",
          "type": "uint256"
        },
        {
          "internalType": "string",
          "name": "title",
          "type": "string"
        },
        {
          "internalType": "string",
          "name": "department",
          "type": "string"
        },
        {
          "internalType": "string",
          "name": "description",
          "type": "string"
        },
        {
          "internalType": "uint256",
          "name": "startTime",
          "type": "uint256"
        },
        {
          "internalType": "uint256",
          "name": "endTime",
          "type": "uint256"
        },
        {
          "internalType": "bool",
          "name": "isActive",
          "type": "bool"
        },
        {
          "internalType": "uint256",
          "name": "candidatesCount",
          "type": "uint256"
        }
      ],
      "stateMutability": "view",
      "type": "function"
    },
    {
      "inputs": [
        {
          "internalType": "uint256",
          "name": "_electionId",
          "type": "uint256"
        }
      ],
      "name": "hasUserVoted",
      "outputs": [
        {
          "internalType": "bool",
          "name": "",
          "type": "bool"
        }
      ],
      "stateMutability": "view",
      "type": "function"
    },
    {
      "inputs": [
        {
          "internalType": "uint256",
          "name": "_electionId",
          "type": "uint256"
        }
      ],
      "name": "isElectionActive",
      "outputs": [
        {
          "internalType": "bool",
          "name": "",
          "type": "bool"
        }
      ],
      "stateMutability": "view",
      "type": "function"
    },
    {
      "inputs": [],
      "name": "owner",
      "outputs": [
        {
          "internalType": "address",
          "name": "",
          "type": "address"
        }
      ],
      "stateMutability": "view",
      "type": "function"
    },
    {
      "inputs": [
        {
          "internalType": "address",
          "name": "_admin",
          "type": "address"
        }
      ],
      "name": "removeAdmin",
      "outputs": [],
      "stateMutability": "nonpayable",
      "type": "function"
    },
    {
      "inputs": [],
      "name": "renounceOwnership",
      "outputs": [],
      "stateMutability": "nonpayable",
      "type": "function"
    },
    {
      "inputs": [
        {
          "internalType": "address",
          "name": "newOwner",
          "type": "address"
        }
      ],
      "name": "transferOwnership",
      "outputs": [],
      "stateMutability": "nonpayable",
      "type": "function"
    },
    {
      "inputs": [
        {
          "internalType": "uint256",
          "name": "_electionId",
          "type": "uint256"
        },
        {
          "internalType": "uint256",
          "name": "_candidateId",
          "type": "uint256"
        }
      ],
      "name": "vote",
      "outputs": [],
      "stateMutability": "nonpayable",
      "type": "function"
    }
  ],
  "bytecode": "0x608060405234801561001057600080fd5b5061002d61002261008a60201b60201c565b61009260201b60201c565b6001600360003373ffffffffffffffffffffffffffffffffffffffff1673ffffffffffffffffffffffffffffffffffffffff16815260200190815260200160002060006101000a81548160ff021916908315150217905550610156565b600033905090565b60008060009054906101000a900473ffffffffffffffffffffffffffffffffffffffff169050816000806101000a81548173ffffffffffffffffffffffffffffffffffffffff021916908373ffffffffffffffffffffffffffffffffffffffff1602179055508173ffffffffffffffffffffffffffffffffffffffff168173ffffffffffffffffffffffffffffffffffffffff167f8be0079c531659141344cd1fd0a4f28419497f9722a3daafe3b4186f6b6457e060405160405180910390a35050565b612525806101656000396000f3fe608060405234801561001057600080fd5b50600436106100f55760003560e01c80635e6fef01116100975780638da5cb5b116100665780638da5cb5b146102895780639d710777146102a7578063b384abef146102de578063f2fde38b146102fa576100f5565b80635e6fef01146101fc5780636ee17f6f146102335780637048027514610263578063715018a61461027f576100f5565b806319b99e03116100d357806319b99e031461014e578063429b62e51461016a5780634bd464481461019a5780635153af5c146101cc576100f5565b806309e33d07146100fa5780631750a3d0146101165780631785f53c14610132575b600080fd5b610114600480360381019061010f9190611688565b610316565b005b610130600480360381019061012b91906117fb565b6104f1565b005b61014c600480360381019061014791906118b5565b610794565b005b610168600480360381019061016391906118e2565b610865565b005b610184600480360381019061017f91906118b5565b610b12565b60405161019191906119cc565b60405180910390f35b6101b460048036038101906101af91906119e7565b610b32565b6040516101c393929190611ab5565b60405180910390f35b6101e660048036038101906101e19190611688565b610c0a565b6040516101f391906119cc565b60405180910390f35b61021660048036038101906102119190611688565b610c74565b60405161022a989796959493929190611af3565b60405180910390f35b61024d60048036038101906102489190611688565b610e61565b60405161025a91906119cc565b60405180910390f35b61027d600480360381019061027891906118b5565b610ea3565b005b610287610f06565b005b610291610f1a565b60405161029e9190611b95565b60405180910390f35b6102c160048036038101906102bc9190611688565b610f43565b6040516102d5989796959493929190611af3565b60405180910390f35b6102f860048036038101906102f391906119e7565b611159565b005b610314600480360381019061030f91906118b5565b61144d565b005b600360003373ffffffffffffffffffffffffffffffffffffffff1673ffffffffffffffffffffffffffffffffffffffff16815260200190815260200160002060009054906101000a900460ff16806103a05750610371610f1a565b73ffffffffffffffffffffffffffffffffffffffff163373ffffffffffffffffffffffffffffffffffffffff16145b6103df576040517f08c379a00000000000000000000000000000000000000000000000000000000081526004016103d690611bfc565b60405180910390fd5b806000600260008381526020019081526020016000206004015411610439576040517f08c379a000000000000000000000000000000000000000000000000000000000815260040161043090611c68565b60405180910390fd5b60026000838152602001908152602001600020600501544211610491576040517f08c379a000000000000000000000000000000000000000000000000000000000815260040161048890611cd4565b60405180910390fd5b60006002600084815260200190815260200160002060060160006101000a81548160ff021916908315150217905550817f393c4b8e62f1195313cf17dcf00793c668ddfc35881cd8015559c074f6d61e8360405160405180910390a25050565b600360003373ffffffffffffffffffffffffffffffffffffffff1673ffffffffffffffffffffffffffffffffffffffff16815260200190815260200160002060009054906101000a900460ff168061057b575061054c610f1a565b73ffffffffffffffffffffffffffffffffffffffff163373ffffffffffffffffffffffffffffffffffffffff16145b6105ba576040517f08c379a00000000000000000000000000000000000000000000000000000000081526004016105b190611bfc565b60405180910390fd5b816000600260008381526020019081526020016000206004015411610614576040517f08c379a000000000000000000000000000000000000000000000000000000000815260040161060b90611c68565b60405180910390fd5b6002600084815260200190815260200160002060060160009054906101000a900460ff16610677576040517f08c379a000000000000000000000000000000000000000000000000000000000815260040161066e90611d40565b60405180910390fd5b60026000848152602001908152602001600020600801600081548092919061069e90611d8f565b919050555060006002600085815260200190815260200160002060080154905080600260008681526020019081526020016000206007016000838152602001908152602001600020600001819055508260026000868152602001908152602001600020600701600083815260200190815260200160002060010190816107249190611fe3565b5060006002600086815260200190815260200160002060070160008381526020019081526020016000206002018190555080847fed8911b3df733b7d5f75724158e54478ea12e30f49c9d31b5261879f5b76586f8560405161078691906120b5565b60405180910390a350505050565b61079c6114d0565b3373ffffffffffffffffffffffffffffffffffffffff168173ffffffffffffffffffffffffffffffffffffffff160361080a576040517f08c379a000000000000000000000000000000000000000000000000000000000815260040161080190612123565b60405180910390fd5b6000600360008373ffffffffffffffffffffffffffffffffffffffff1673ffffffffffffffffffffffffffffffffffffffff16815260200190815260200160002060006101000a81548160ff02191690831515021790555050565b600360003373ffffffffffffffffffffffffffffffffffffffff1673ffffffffffffffffffffffffffffffffffffffff16815260200190815260200160002060009054906101000a900460ff16806108ef57506108c0610f1a565b73ffffffffffffffffffffffffffffffffffffffff163373ffffffffffffffffffffffffffffffffffffffff16145b61092e576040517f08c379a000000000000000000000000000000000000000000000000000000000815260040161092590611bfc565b60405180910390fd5b428211610970576040517f08c379a00000000000000000000000000000000000000000000000000000000081526004016109679061218f565b60405180910390fd5b8181116109b2576040517f08c379a00000000000000000000000000000000000000000000000000000000081526004016109a990612221565b60405180910390fd5b6109bc600161154e565b60006109c86001611564565b905080600260008381526020019081526020016000206000018190555085600260008381526020019081526020016000206001019081610a089190611fe3565b5084600260008381526020019081526020016000206002019081610a2c9190611fe3565b5083600260008381526020019081526020016000206003019081610a509190611fe3565b5082600260008381526020019081526020016000206004018190555081600260008381526020019081526020016000206005018190555060016002600083815260200190815260200160002060060160006101000a81548160ff02191690831515021790555060006002600083815260200190815260200160002060080181905550807f52be7c4e77b4de76b7607d621492061fe13b58597e72dfb5e51ab8f6187ed14187604051610b0291906120b5565b60405180910390a2505050505050565b60036020528060005260406000206000915054906101000a900460ff1681565b6000606060008060026000878152602001908152602001600020600701600086815260200190815260200160002090508060000154816001018260020154818054610b7c90611e06565b80601f0160208091040260200160405190810160405280929190818152602001828054610ba890611e06565b8015610bf55780601f10610bca57610100808354040283529160200191610bf5565b820191906000526020600020905b815481529060010190602001808311610bd857829003601f168201915b50505050509150935093509350509250925092565b60006002600083815260200190815260200160002060090160003373ffffffffffffffffffffffffffffffffffffffff1673ffffffffffffffffffffffffffffffffffffffff16815260200190815260200160002060009054906101000a900460ff169050919050565b6002602052806000526040600020600091509050806000015490806001018054610c9d90611e06565b80601f0160208091040260200160405190810160405280929190818152602001828054610cc990611e06565b8015610d165780601f10610ceb57610100808354040283529160200191610d16565b820191906000526020600020905b815481529060010190602001808311610cf957829003601f168201915b505050505090806002018054610d2b90611e06565b80601f0160208091040260200160405190810160405280929190818152602001828054610d5790611e06565b8015610da45780601f10610d7957610100808354040283529160200191610da4565b820191906000526020600020905b815481529060010190602001808311610d8757829003601f168201915b505050505090806003018054610db990611e06565b80601f0160208091040260200160405190810160405280929190818152602001828054610de590611e06565b8015610e325780601f10610e0757610100808354040283529160200191610e32565b820191906000526020600020905b815481529060010190602001808311610e1557829003601f168201915b5050505050908060040154908060050154908060060160009054906101000a900460ff16908060080154905088565b6000806002600084815260200190815260200160002090508060060160009054906101000a900460ff168015610e9b575080600501544211155b915050919050565b610eab6114d0565b6001600360008373ffffffffffffffffffffffffffffffffffffffff1673ffffffffffffffffffffffffffffffffffffffff16815260200190815260200160002060006101000a81548160ff02191690831515021790555050565b610f0e6114d0565b610f186000611572565b565b60008060009054906101000a900473ffffffffffffffffffffffffffffffffffffffff16905090565b600060608060606000806000806000600260008b815260200190815260200160002090508060000154816001018260020183600301846004015485600501548660060160009054906101000a900460ff168760080154868054610fa590611e06565b80601f0160208091040260200160405190810160405280929190818152602001828054610fd190611e06565b801561101e5780601f10610ff35761010080835404028352916020019161101e565b820191906000526020600020905b81548152906001019060200180831161100157829003601f168201915b5050505050965085805461103190611e06565b80601f016020809104026020016040519081016040528092919081815260200182805461105d90611e06565b80156110aa5780601f1061107f576101008083540402835291602001916110aa565b820191906000526020600020905b81548152906001019060200180831161108d57829003601f168201915b505050505095508480546110bd90611e06565b80601f01602080910402602001604051908101604052809291908181526020018280546110e990611e06565b80156111365780601f1061110b57610100808354040283529160200191611136565b820191906000526020600020905b81548152906001019060200180831161111957829003601f168201915b505050505094509850985098509850985098509850985050919395975091939597565b8160006002600083815260200190815260200160002060040154116111b3576040517f08c379a00000000000000000000000000000000000000000000000000000000081526004016111aa90611c68565b60405180910390fd5b82600260008281526020019081526020016000206004015442101561120d576040517f08c379a00000000000000000000000000000000000000000000000000000000081526004016112049061228d565b60405180910390fd5b6002600082815260200190815260200160002060050154421115611266576040517f08c379a000000000000000000000000000000000000000000000000000000000815260040161125d906122f9565b60405180910390fd5b836002600082815260200190815260200160002060090160003373ffffffffffffffffffffffffffffffffffffffff1673ffffffffffffffffffffffffffffffffffffffff16815260200190815260200160002060009054906101000a900460ff1615611308576040517f08c379a00000000000000000000000000000000000000000000000000000000081526004016112ff90612365565b60405180910390fd5b6002600086815260200190815260200160002060080154841115611361576040517f08c379a0000000000000000000000000000000000000000000000000000000008152600401611358906123d1565b60405180910390fd5b60016002600087815260200190815260200160002060090160003373ffffffffffffffffffffffffffffffffffffffff1673ffffffffffffffffffffffffffffffffffffffff16815260200190815260200160002060006101000a81548160ff021916908315150217905550600260008681526020019081526020016000206007016000858152602001908152602001600020600201600081548092919061140890611d8f565b919050555083857fd91ecafccf238642dccd41161308b3eebe62a12bc5819daf5164780c221ec95b3360405161143e9190611b95565b60405180910390a35050505050565b6114556114d0565b600073ffffffffffffffffffffffffffffffffffffffff168173ffffffffffffffffffffffffffffffffffffffff16036114c4576040517f08c379a00000000000000000000000000000000000000000000000000000000081526004016114bb90612463565b60405180910390fd5b6114cd81611572565b50565b6114d8611636565b73ffffffffffffffffffffffffffffffffffffffff166114f6610f1a565b73ffffffffffffffffffffffffffffffffffffffff161461154c576040517f08c379a0000000000000000000000000000000000000000000000000000000008152600401611543906124cf565b60405180910390fd5b565b6001816000016000828254019250508190555050565b600081600001549050919050565b60008060009054906101000a900473ffffffffffffffffffffffffffffffffffffffff169050816000806101000a81548173ffffffffffffffffffffffffffffffffffffffff021916908373ffffffffffffffffffffffffffffffffffffffff1602179055508173ffffffffffffffffffffffffffffffffffffffff168173ffffffffffffffffffffffffffffffffffffffff167f8be0079c531659141344cd1fd0a4f28419497f9722a3daafe3b4186f6b6457e060405160405180910390a35050565b600033905090565b6000604051905090565b600080fd5b600080fd5b6000819050919050565b61166581611652565b811461167057600080fd5b50565b6000813590506116828161165c565b92915050565b60006020828403121561169e5761169d611648565b5b60006116ac84828501611673565b91505092915050565b600080fd5b600080fd5b6000601f19601f8301169050919050565b7f4e487b7100000000000000000000000000000000000000000000000000000000600052604160045260246000fd5b611708826116bf565b810181811067ffffffffffffffff82111715611727576117266116d0565b5b80604052505050565b600061173a61163e565b905061174682826116ff565b919050565b600067ffffffffffffffff821115611766576117656116d0565b5b61176f826116bf565b9050602081019050919050565b82818337600083830152505050565b600061179e6117998461174b565b611730565b9050828152602081018484840111156117ba576117b96116ba565b5b6117c584828561177c565b509392505050565b600082601f8301126117e2576117e16116b5565b5b81356117f284826020860161178b565b91505092915050565b6000806040838503121561181257611811611648565b5b600061182085828601611673565b925050602083013567ffffffffffffffff8111156118415761184061164d565b5b61184d858286016117cd565b9150509250929050565b600073ffffffffffffffffffffffffffffffffffffffff82169050919050565b600061188282611857565b9050919050565b61189281611877565b811461189d57600080fd5b50565b6000813590506118af81611889565b92915050565b6000602082840312156118cb576118ca611648565b5b60006118d9848285016118a0565b91505092915050565b600080600080600060a086880312156118fe576118fd611648565b5b600086013567ffffffffffffffff81111561191c5761191b61164d565b5b611928888289016117cd565b955050602086013567ffffffffffffffff8111156119495761194861164d565b5b611955888289016117cd565b945050604086013567ffffffffffffffff8111156119765761197561164d565b5b611982888289016117cd565b935050606061199388828901611673565b92505060806119a488828901611673565b9150509295509295909350565b60008115159050919050565b6119c6816119b1565b82525050565b60006020820190506119e160008301846119bd565b92915050565b600080604083850312156119fe576119fd611648565b5b6000611a0c85828601611673565b9250506020611a1d85828601611673565b9150509250929050565b611a3081611652565b82525050565b600081519050919050565b600082825260208201905092915050565b60005b83811015611a70578082015181840152602081019050611a55565b60008484015250505050565b6000611a8782611a36565b611a918185611a41565b9350611aa1818560208601611a52565b611aaa816116bf565b840191505092915050565b6000606082019050611aca6000830186611a27565b8181036020830152611adc8185611a7c565b9050611aeb6040830184611a27565b949350505050565b600061010082019050611b09600083018b611a27565b8181036020830152611b1b818a611a7c565b90508181036040830152611b2f8189611a7c565b90508181036060830152611b438188611a7c565b9050611b526080830187611a27565b611b5f60a0830186611a27565b611b6c60c08301856119bd565b611b7960e0830184611a27565b9998505050505050505050565b611b8f81611877565b82525050565b6000602082019050611baa6000830184611b86565b92915050565b7f4e6f7420617574686f72697a6564000000000000000000000000000000000000600082015250565b6000611be6600e83611a41565b9150611bf182611bb0565b602082019050919050565b60006020820190508181036000830152611c1581611bd9565b9050919050565b7f456c656374696f6e20646f6573206e6f74206578697374000000000000000000600082015250565b6000611c52601783611a41565b9150611c5d82611c1c565b602082019050919050565b60006020820190508181036000830152611c8181611c45565b9050919050565b7f456c656374696f6e207374696c6c206163746976650000000000000000000000600082015250565b6000611cbe601583611a41565b9150611cc982611c88565b602082019050919050565b60006020820190508181036000830152611ced81611cb1565b9050919050565b7f456c656374696f6e206973206e6f742061637469766500000000000000000000600082015250565b6000611d2a601683611a41565b9150611d3582611cf4565b602082019050919050565b60006020820190508181036000830152611d5981611d1d565b9050919050565b7f4e487b7100000000000000000000000000000000000000000000000000000000600052601160045260246000fd5b6000611d9a82611652565b91507fffffffffffffffffffffffffffffffffffffffffffffffffffffffffffffffff8203611dcc57611dcb611d60565b5b600182019050919050565b7f4e487b7100000000000000000000000000000000000000000000000000000000600052602260045260246000fd5b60006002820490506001821680611e1e57607f821691505b602082108103611e3157611e30611dd7565b5b50919050565b60008190508160005260206000209050919050565b60006020601f8301049050919050565b600082821b905092915050565b600060088302611e997fffffffffffffffffffffffffffffffffffffffffffffffffffffffffffffffff82611e5c565b611ea38683611e5c565b95508019841693508086168417925050509392505050565b6000819050919050565b6000611ee0611edb611ed684611652565b611ebb565b611652565b9050919050565b6000819050919050565b611efa83611ec5565b611f0e611f0682611ee7565b848454611e69565b825550505050565b600090565b611f23611f16565b611f2e818484611ef1565b505050565b5b81811015611f5257611f47600082611f1b565b600181019050611f34565b5050565b601f821115611f9757611f6881611e37565b611f7184611e4c565b81016020851015611f80578190505b611f94611f8c85611e4c565b830182611f33565b50505b505050565b600082821c905092915050565b6000611fba60001984600802611f9c565b1980831691505092915050565b6000611fd38383611fa9565b9150826002028217905092915050565b611fec82611a36565b67ffffffffffffffff811115612005576120046116d0565b5b61200f8254611e06565b61201a828285611f56565b600060209050601f83116001811461204d576000841561203b578287015190505b6120458582611fc7565b8655506120ad565b601f19841661205b86611e37565b60005b828110156120835784890151825560018201915060208501945060208101905061205e565b868310156120a0578489015161209c601f891682611fa9565b8355505b6001600288020188555050505b505050505050565b600060208201905081810360008301526120cf8184611a7c565b905092915050565b7f43616e6e6f742072656d6f76652073656c660000000000000000000000000000600082015250565b600061210d601283611a41565b9150612118826120d7565b602082019050919050565b6000602082019050818103600083015261213c81612100565b9050919050565b7f53746172742074696d65206d75737420626520696e2066757475726500000000600082015250565b6000612179601c83611a41565b915061218482612143565b602082019050919050565b600060208201905081810360008301526121a88161216c565b9050919050565b7f456e642074696d65206d7573742062652061667465722073746172742074696d60008201527f6500000000000000000000000000000000000000000000000000000000000000602082015250565b600061220b602183611a41565b9150612216826121af565b604082019050919050565b6000602082019050818103600083015261223a816121fe565b9050919050565b7f456c656374696f6e206e6f742073746172746564000000000000000000000000600082015250565b6000612277601483611a41565b915061228282612241565b602082019050919050565b600060208201905081810360008301526122a68161226a565b9050919050565b7f456c656374696f6e20656e646564000000000000000000000000000000000000600082015250565b60006122e3600e83611a41565b91506122ee826122ad565b602082019050919050565b60006020820190508181036000830152612312816122d6565b9050919050565b7f416c726561647920766f74656400000000000000000000000000000000000000600082015250565b600061234f600d83611a41565b915061235a82612319565b602082019050919050565b6000602082019050818103600083015261237e81612342565b9050919050565b7f496e76616c69642063616e646964617465000000000000000000000000000000600082015250565b60006123bb601183611a41565b91506123c682612385565b602082019050919050565b600060208201905081810360008301526123ea816123ae565b9050919050565b7f4f776e61626c653a206e6577206f776e657220697320746865207a65726f206160008201527f6464726573730000000000000000000000000000000000000000000000000000602082015250565b600061244d602683611a41565b9150612458826123f1565b604082019050919050565b6000602082019050818103600083015261247c81612440565b9050919050565b7f4f776e61626c653a2063616c6c6572206973206e6f7420746865206f776e6572600082015250565b60006124b9602083611a41565b91506124c482612483565b602082019050919050565b600060208201905081810360008301526124e8816124ac565b905091905056fea26469706673582212205a2f68cfdda9471bbd274a97c0fcaa538f13e99e1ac24ef037035bcb0fd71c8464736f6c634300081c0033",
  "linkReferences": {},
  "deployedLinkReferences": {}
}