{
  "_format": "hh-sol-artifact-1",
  "contractName": "VotingV2",
  "sourceName": "contracts/VotingV2.sol",
  "abi": [
    {
      "inputs": [],
      "stateMutability": "nonpayable",
      "type": "constructor"
    },
    {
      "anonymous": false,
      "inputs": [
        {
          "indexed": true,
          "internalType": "uint256",
          "name": "electionId",
          "type": "uint256"
        },
        {
          "indexed": true,
          "internalType": "uint256",
          "name": "candidateId",
          "type": "uint256"
        },
        {
          "indexed": false,
          "internalType": "string",
          "name": "name",
          "type": "string"
        }
      ],
      "name": "CandidateAdded",
      "type": "event"
    },
    {
      "anonymous": false,
      "inputs": [
        {
          "indexed": true,
          "internalType": "uint256",
          "name": "electionId",
          "type": "uint256"
        }
      ],
      "name": "ElectionClosed",
      "type": "event"
    },
    {
      "anonymous": false,
      "inputs": [
        {
          "indexed": true,
          "internalType": "uint256",
          "name": "electionId",
          "type": "uint256"
        },
        {
          "indexed": false,
          "internalType": "string",
          "name": "title",
          "type": "string"
        }
      ],
      "name": "ElectionCreated",
      "type": "event"
    },
    {
      "anonymous": false,
      "inputs": [
        {
          "indexed": true,
          "internalType": "address",
          "name": "previousOwner",
          "type": "address"
        },
        {
          "indexed": true,
          "internalType": "address",
          "name": "newOwner",
          "type": "address"
        }
      ],
      "name": "OwnershipTransferred",
      "type": "event"
    },
    {
      "anonymous": false,
      "inputs": [
        {
          "indexed": true,
          "internalType": "uint256",
          "name": "electionId",
          "type": "uint256"
        },
        {
          "indexed": true,
          "internalType": "uint256",
          "name": "candidateId",
          "type": "uint256"
        },
        {
          "indexed": false,
          "internalType": "address",
          "name": "voter",
          "type": "address"
        }
      ],
      "name": "Voted",
      "type": "event"
    },
    {
      "inputs": [
        {
          "internalType": "address",
          "name": "_admin",
          "type": "address"
        }
      ],
      "name": "addAdmin",
      "outputs": [],
      "stateMutability": "nonpayable",
      "type": "function"
    },
    {
      "inputs": [
        {
          "internalType": "uint256",
          "name": "_electionId",
          "type": "uint256"
        },
        {
          "internalType": "string",
          "name": "_name",
          "type": "string"
        }
      ],
      "name": "addCandidate",
      "outputs": [],
      "stateMutability": "nonpayable",
      "type": "function"
    },
    {
      "inputs": [
        {
          "internalType": "address",
          "name": "",
          "type": "address"
        }
      ],
      "name": "admins",
      "outputs": [
        {
          "internalType": "bool",
          "name": "",
          "type": "bool"
        }
      ],
      "stateMutability": "view",
      "type": "function"
    },
    {
      "inputs": [
        {
          "internalType": "uint256",
          "name": "_electionId",
          "type": "uint256"
        }
      ],
      "name": "closeElection",
      "outputs": [],
      "stateMutability": "nonpayable",
      "type": "function"
    },
    {
      "inputs": [
        {
          "internalType": "string",
          "name": "_title",
          "type": "string"
        },
        {
          "internalType": "string",
          "name": "_department",
          "type": "string"
        },
        {
          "internalType": "string",
          "name": "_description",
          "type": "string"
        },
        {
          "internalType": "uint256",
          "name": "_startTime",
          "type": "uint256"
        },
        {
          "internalType": "uint256",
          "name": "_endTime",
          "type": "uint256"
        }
      ],
      "name": "createElection",
      "outputs": [],
      "stateMutability": "nonpayable",
      "type": "function"
    },
    {
      "inputs": [
        {
          "internalType": "uint256",
          "name": "",
          "type": "uint256"
        }
      ],
      "name": "elections",
      "outputs": [
        {
          "internalType": "uint256",
          "name": "id",
          "type": "uint256"
        },
        {
          "internalType": "string",
          "name": "title",
          "type": "string"
        },
        {
          "internalType": "string",
          "name": "department",
          "type": "string"
        },
        {
          "internalType": "string",
          "name": "description",
          "type": "string"
        },
        {
          "internalType": "uint256",
          "name": "startTime",
          "type": "uint256"
        },
        {
          "internalType": "uint256",
          "name": "endTime",
          "type": "uint256"
        },
        {
          "internalType": "bool",
          "name": "isActive",
          "type": "bool"
        },
        {
          "internalType": "uint256",
          "name": "candidatesCount",
          "type": "uint256"
        }
      ],
      "stateMutability": "view",
      "type": "function"
    },
    {
      "inputs": [
        {
          "internalType": "uint256",
          "name": "_electionId",
          "type": "uint256"
        },
        {
          "internalType": "uint256",
          "name": "_candidateId",
          "type": "uint256"
        }
      ],
      "name": "getCandidate",
      "outputs": [
        {
          "internalType": "uint256",
          "name": "id",
          "type": "uint256"
        },
        {
          "internalType": "string",
          "name": "name",
          "type": "string"
        },
        {
          "internalType": "uint256",
          "name": "voteCount",
          "type": "uint256"
        }
      ],
      "stateMutability": "view",
      "type": "function"
    },
    {
      "inputs": [
        {
          "internalType": "uint256",
          "name": "_electionId",
          "type": "uint256"
        }
      ],
      "name": "getElection",
      "outputs": [
        {
          "internalType": "uint256",
          "name": "id",
          "type": "uint256"
        },
        {
          "internalType": "string",
          "name": "title",
          "type": "string"
        },
        {
          "internalType": "string",
          "name": "department",
          "type": "string"
        },
        {
          "internalType": "string",
          "name": "description",
          "type": "string"
        },
        {
          "internalType": "uint256",
          "name": "startTime",
          "type": "uint256"
        },
        {
          "internalType": "uint256",
          "name": "endTime",
          "type": "uint256"
        },
        {
          "internalType": "bool",
          "name": "isActive",
          "type": "bool"
        },
        {
          "internalType": "uint256",
          "name": "candidatesCount",
          "type": "uint256"
        }
      ],
      "stateMutability": "view",
      "type": "function"
    },
    {
      "inputs": [
        {
          "internalType": "address",
          "name": "_user",
          "type": "address"
        }
      ],
      "name": "getUserTotalVotes",
      "outputs": [
        {
          "internalType": "uint256",
          "name": "",
          "type": "uint256"
        }
      ],
      "stateMutability": "view",
      "type": "function"
    },
    {
      "inputs": [
        {
          "internalType": "address",
          "name": "_user",
          "type": "address"
        }
      ],
      "name": "getUserVoteHistory",
      "outputs": [
        {
          "components": [
            {
              "internalType": "uint256",
              "name": "electionId",
              "type": "uint256"
            },
            {
              "internalType": "uint256",
              "name": "candidateId",
              "type": "uint256"
            },
            {
              "internalType": "uint256",
              "name": "timestamp",
              "type": "uint256"
            }
          ],
          "internalType": "struct VotingV2.VoteHistory[]",
          "name": "",
          "type": "tuple[]"
        }
      ],
      "stateMutability": "view",
      "type": "function"
    },
    {
      "inputs": [
        {
          "internalType": "uint256",
          "name": "_electionId",
          "type": "uint256"
        },
        {
          "internalType": "address",
          "name": "_user",
          "type": "address"
        }
      ],
      "name": "hasUserVoted",
      "outputs": [
        {
          "internalType": "bool",
          "name": "",
          "type": "bool"
        }
      ],
      "stateMutability": "view",
      "type": "function"
    },
    {
      "inputs": [
        {
          "internalType": "uint256",
          "name": "_electionId",
          "type": "uint256"
        }
      ],
      "name": "isElectionActive",
      "outputs": [
        {
          "internalType": "bool",
          "name": "",
          "type": "bool"
        }
      ],
      "stateMutability": "view",
      "type": "function"
    },
    {
      "inputs": [],
      "name": "owner",
      "outputs": [
        {
          "internalType": "address",
          "name": "",
          "type": "address"
        }
      ],
      "stateMutability": "view",
      "type": "function"
    },
    {
      "inputs": [
        {
          "internalType": "address",
          "name": "_admin",
          "type": "address"
        }
      ],
      "name": "removeAdmin",
      "outputs": [],
      "stateMutability": "nonpayable",
      "type": "function"
    },
    {
      "inputs": [],
      "name": "renounceOwnership",
      "outputs": [],
      "stateMutability": "nonpayable",
      "type": "function"
    },
    {
      "inputs": [
        {
          "internalType": "address",
          "name": "newOwner",
          "type": "address"
        }
      ],
      "name": "transferOwnership",
      "outputs": [],
      "stateMutability": "nonpayable",
      "type": "function"
    },
    {
      "inputs": [
        {
          "internalType": "address",
          "name": "",
          "type": "address"
        },
        {
          "internalType": "uint256",
          "name": "",
          "type": "uint256"
        }
      ],
      "name": "userVoteHistory",
      "outputs": [
        {
          "internalType": "uint256",
          "name": "electionId",
          "type": "uint256"
        },
        {
          "internalType": "uint256",
          "name": "candidateId",
          "type": "uint256"
        },
        {
          "internalType": "uint256",
          "name": "timestamp",
          "type": "uint256"
        }
      ],
      "stateMutability": "view",
      "type": "function"
    },
    {
      "inputs": [
        {
          "internalType": "address",
          "name": "",
          "type": "address"
        },
        {
          "internalType": "uint256",
          "name": "",
          "type": "uint256"
        }
      ],
      "name": "userVotes",
      "outputs": [
        {
          "internalType": "bool",
          "name": "",
          "type": "bool"
        }
      ],
      "stateMutability": "view",
      "type": "function"
    },
    {
      "inputs": [
        {
          "internalType": "uint256",
          "name": "_electionId",
          "type": "uint256"
        },
        {
          "internalType": "uint256",
          "name": "_candidateId",
          "type": "uint256"
        }
      ],
      "name": "vote",
      "outputs": [],
      "stateMutability": "nonpayable",
      "type": "function"
    }
  ],
  "bytecode": "0x608060405234801561001057600080fd5b5061002d61002261008a60201b60201c565b61009260201b60201c565b6001600560003373ffffffffffffffffffffffffffffffffffffffff1673ffffffffffffffffffffffffffffffffffffffff16815260200190815260200160002060006101000a81548160ff021916908315150217905550610156565b600033905090565b60008060009054906101000a900473ffffffffffffffffffffffffffffffffffffffff169050816000806101000a81548173ffffffffffffffffffffffffffffffffffffffff021916908373ffffffffffffffffffffffffffffffffffffffff1602179055508173ffffffffffffffffffffffffffffffffffffffff168173ffffffffffffffffffffffffffffffffffffffff167f8be0079c531659141344cd1fd0a4f28419497f9722a3daafe3b4186f6b6457e060405160405180910390a35050565b612aa0806101656000396000f3fe608060405234801561001057600080fd5b50600436106101215760003560e01c806370480275116100ad5780639d710777116100715780639d71077714610333578063a80e6e381461036a578063b384abef1461039c578063dc296ae1146103b8578063f2fde38b146103e857610121565b8063704802751461028f578063715018a6146102ab5780637183ab24146102b55780638b3511f7146102e55780638da5cb5b1461031557610121565b8063257d0f07116100f4578063257d0f0714610196578063429b62e5146101c65780634bd46448146101f65780635e6fef01146102285780636ee17f6f1461025f57610121565b806309e33d07146101265780631750a3d0146101425780631785f53c1461015e57806319b99e031461017a575b600080fd5b610140600480360381019061013b9190611a0f565b610404565b005b61015c60048036038101906101579190611b82565b610642565b005b61017860048036038101906101739190611c3c565b61089f565b005b610194600480360381019061018f9190611c69565b610970565b005b6101b060048036038101906101ab9190611c3c565b610c1d565b6040516101bd9190611e38565b60405180910390f35b6101e060048036038101906101db9190611c3c565b610cd9565b6040516101ed9190611e75565b60405180910390f35b610210600480360381019061020b9190611e90565b610cf9565b60405161021f93929190611f5e565b60405180910390f35b610242600480360381019061023d9190611a0f565b610dd1565b604051610256989796959493929190611f9c565b60405180910390f35b61027960048036038101906102749190611a0f565b610fbe565b6040516102869190611e75565b60405180910390f35b6102a960048036038101906102a49190611c3c565b611000565b005b6102b3611063565b005b6102cf60048036038101906102ca9190611c3c565b611077565b6040516102dc919061202f565b60405180910390f35b6102ff60048036038101906102fa919061204a565b6110c3565b60405161030c9190611e75565b60405180910390f35b61031d6110f2565b60405161032a9190612099565b60405180910390f35b61034d60048036038101906103489190611a0f565b61111b565b604051610361989796959493929190611f9c565b60405180910390f35b610384600480360381019061037f919061204a565b611331565b604051610393939291906120b4565b60405180910390f35b6103b660048036038101906103b19190611e90565b611378565b005b6103d260048036038101906103cd91906120eb565b61176c565b6040516103df9190611e75565b60405180910390f35b61040260048036038101906103fd9190611c3c565b6117d4565b005b600560003373ffffffffffffffffffffffffffffffffffffffff1673ffffffffffffffffffffffffffffffffffffffff16815260200190815260200160002060009054906101000a900460ff168061048e575061045f6110f2565b73ffffffffffffffffffffffffffffffffffffffff163373ffffffffffffffffffffffffffffffffffffffff16145b6104cd576040517f08c379a00000000000000000000000000000000000000000000000000000000081526004016104c490612177565b60405180910390fd5b806000600260008381526020019081526020016000206004015411610527576040517f08c379a000000000000000000000000000000000000000000000000000000000815260040161051e906121e3565b60405180910390fd5b6002600083815260200190815260200160002060050154421161057f576040517f08c379a00000000000000000000000000000000000000000000000000000000081526004016105769061224f565b60405180910390fd5b6002600083815260200190815260200160002060060160009054906101000a900460ff166105e2576040517f08c379a00000000000000000000000000000000000000000000000000000000081526004016105d9906122bb565b60405180910390fd5b60006002600084815260200190815260200160002060060160006101000a81548160ff021916908315150217905550817f393c4b8e62f1195313cf17dcf00793c668ddfc35881cd8015559c074f6d61e8360405160405180910390a25050565b600560003373ffffffffffffffffffffffffffffffffffffffff1673ffffffffffffffffffffffffffffffffffffffff16815260200190815260200160002060009054906101000a900460ff16806106cc575061069d6110f2565b73ffffffffffffffffffffffffffffffffffffffff163373ffffffffffffffffffffffffffffffffffffffff16145b61070b576040517f08c379a000000000000000000000000000000000000000000000000000000000815260040161070290612177565b60405180910390fd5b816000600260008381526020019081526020016000206004015411610765576040517f08c379a000000000000000000000000000000000000000000000000000000000815260040161075c906121e3565b60405180910390fd5b6002600084815260200190815260200160002060060160009054906101000a900460ff166107c8576040517f08c379a00000000000000000000000000000000000000000000000000000000081526004016107bf906122bb565b60405180910390fd5b6002600084815260200190815260200160002060080160008154809291906107ef9061230a565b91905055506000600260008581526020019081526020016000206008015490506000600260008681526020019081526020016000206007016000838152602001908152602001600020905081816000018190555083816001019081610854919061255e565b506000816002018190555081857fed8911b3df733b7d5f75724158e54478ea12e30f49c9d31b5261879f5b76586f866040516108909190612630565b60405180910390a35050505050565b6108a7611857565b3373ffffffffffffffffffffffffffffffffffffffff168173ffffffffffffffffffffffffffffffffffffffff1603610915576040517f08c379a000000000000000000000000000000000000000000000000000000000815260040161090c9061269e565b60405180910390fd5b6000600560008373ffffffffffffffffffffffffffffffffffffffff1673ffffffffffffffffffffffffffffffffffffffff16815260200190815260200160002060006101000a81548160ff02191690831515021790555050565b600560003373ffffffffffffffffffffffffffffffffffffffff1673ffffffffffffffffffffffffffffffffffffffff16815260200190815260200160002060009054906101000a900460ff16806109fa57506109cb6110f2565b73ffffffffffffffffffffffffffffffffffffffff163373ffffffffffffffffffffffffffffffffffffffff16145b610a39576040517f08c379a0000000000000000000000000000000000000000000000000000000008152600401610a3090612177565b60405180910390fd5b428211610a7b576040517f08c379a0000000000000000000000000000000000000000000000000000000008152600401610a729061270a565b60405180910390fd5b818111610abd576040517f08c379a0000000000000000000000000000000000000000000000000000000008152600401610ab49061279c565b60405180910390fd5b610ac760016118d5565b6000610ad360016118eb565b905080600260008381526020019081526020016000206000018190555085600260008381526020019081526020016000206001019081610b13919061255e565b5084600260008381526020019081526020016000206002019081610b37919061255e565b5083600260008381526020019081526020016000206003019081610b5b919061255e565b5082600260008381526020019081526020016000206004018190555081600260008381526020019081526020016000206005018190555060016002600083815260200190815260200160002060060160006101000a81548160ff02191690831515021790555060006002600083815260200190815260200160002060080181905550807f52be7c4e77b4de76b7607d621492061fe13b58597e72dfb5e51ab8f6187ed14187604051610c0d9190612630565b60405180910390a2505050505050565b6060600460008373ffffffffffffffffffffffffffffffffffffffff1673ffffffffffffffffffffffffffffffffffffffff168152602001908152602001600020805480602002602001604051908101604052809291908181526020016000905b82821015610cce5783829060005260206000209060030201604051806060016040529081600082015481526020016001820154815260200160028201548152505081526020019060010190610c7e565b505050509050919050565b60056020528060005260406000206000915054906101000a900460ff1681565b6000606060008060026000878152602001908152602001600020600701600086815260200190815260200160002090508060000154816001018260020154818054610d4390612381565b80601f0160208091040260200160405190810160405280929190818152602001828054610d6f90612381565b8015610dbc5780601f10610d9157610100808354040283529160200191610dbc565b820191906000526020600020905b815481529060010190602001808311610d9f57829003601f168201915b50505050509150935093509350509250925092565b6002602052806000526040600020600091509050806000015490806001018054610dfa90612381565b80601f0160208091040260200160405190810160405280929190818152602001828054610e2690612381565b8015610e735780601f10610e4857610100808354040283529160200191610e73565b820191906000526020600020905b815481529060010190602001808311610e5657829003601f168201915b505050505090806002018054610e8890612381565b80601f0160208091040260200160405190810160405280929190818152602001828054610eb490612381565b8015610f015780601f10610ed657610100808354040283529160200191610f01565b820191906000526020600020905b815481529060010190602001808311610ee457829003601f168201915b505050505090806003018054610f1690612381565b80601f0160208091040260200160405190810160405280929190818152602001828054610f4290612381565b8015610f8f5780601f10610f6457610100808354040283529160200191610f8f565b820191906000526020600020905b815481529060010190602001808311610f7257829003601f168201915b5050505050908060040154908060050154908060060160009054906101000a900460ff16908060080154905088565b6000806002600084815260200190815260200160002090508060060160009054906101000a900460ff168015610ff8575080600501544211155b915050919050565b611008611857565b6001600560008373ffffffffffffffffffffffffffffffffffffffff1673ffffffffffffffffffffffffffffffffffffffff16815260200190815260200160002060006101000a81548160ff02191690831515021790555050565b61106b611857565b61107560006118f9565b565b6000600460008373ffffffffffffffffffffffffffffffffffffffff1673ffffffffffffffffffffffffffffffffffffffff168152602001908152602001600020805490509050919050565b60036020528160005260406000206020528060005260406000206000915091509054906101000a900460ff1681565b60008060009054906101000a900473ffffffffffffffffffffffffffffffffffffffff16905090565b600060608060606000806000806000600260008b815260200190815260200160002090508060000154816001018260020183600301846004015485600501548660060160009054906101000a900460ff16876008015486805461117d90612381565b80601f01602080910402602001604051908101604052809291908181526020018280546111a990612381565b80156111f65780601f106111cb576101008083540402835291602001916111f6565b820191906000526020600020905b8154815290600101906020018083116111d957829003601f168201915b5050505050965085805461120990612381565b80601f016020809104026020016040519081016040528092919081815260200182805461123590612381565b80156112825780601f1061125757610100808354040283529160200191611282565b820191906000526020600020905b81548152906001019060200180831161126557829003601f168201915b5050505050955084805461129590612381565b80601f01602080910402602001604051908101604052809291908181526020018280546112c190612381565b801561130e5780601f106112e35761010080835404028352916020019161130e565b820191906000526020600020905b8154815290600101906020018083116112f157829003601f168201915b505050505094509850985098509850985098509850985050919395975091939597565b6004602052816000526040600020818154811061134d57600080fd5b9060005260206000209060030201600091509150508060000154908060010154908060020154905083565b8160006002600083815260200190815260200160002060040154116113d2576040517f08c379a00000000000000000000000000000000000000000000000000000000081526004016113c9906121e3565b60405180910390fd5b82600260008281526020019081526020016000206004015442101561142c576040517f08c379a000000000000000000000000000000000000000000000000000000000815260040161142390612808565b60405180910390fd5b6002600082815260200190815260200160002060050154421115611485576040517f08c379a000000000000000000000000000000000000000000000000000000000815260040161147c90612874565b60405180910390fd5b83600360003373ffffffffffffffffffffffffffffffffffffffff1673ffffffffffffffffffffffffffffffffffffffff168152602001908152602001600020600082815260200190815260200160002060009054906101000a900460ff1615611524576040517f08c379a000000000000000000000000000000000000000000000000000000000815260040161151b906128e0565b60405180910390fd5b6002600086815260200190815260200160002060060160009054906101000a900460ff16611587576040517f08c379a000000000000000000000000000000000000000000000000000000000815260040161157e906122bb565b60405180910390fd5b60026000868152602001908152602001600020600801548411156115e0576040517f08c379a00000000000000000000000000000000000000000000000000000000081526004016115d79061294c565b60405180910390fd5b6001600360003373ffffffffffffffffffffffffffffffffffffffff1673ffffffffffffffffffffffffffffffffffffffff168152602001908152602001600020600087815260200190815260200160002060006101000a81548160ff021916908315150217905550600460003373ffffffffffffffffffffffffffffffffffffffff1673ffffffffffffffffffffffffffffffffffffffff1681526020019081526020016000206040518060600160405280878152602001868152602001428152509080600181540180825580915050600190039060005260206000209060030201600090919091909150600082015181600001556020820151816001015560408201518160020155505060026000868152602001908152602001600020600701600085815260200190815260200160002060020160008154809291906117279061230a565b919050555083857fd91ecafccf238642dccd41161308b3eebe62a12bc5819daf5164780c221ec95b3360405161175d9190612099565b60405180910390a35050505050565b6000600360008373ffffffffffffffffffffffffffffffffffffffff1673ffffffffffffffffffffffffffffffffffffffff168152602001908152602001600020600084815260200190815260200160002060009054906101000a900460ff16905092915050565b6117dc611857565b600073ffffffffffffffffffffffffffffffffffffffff168173ffffffffffffffffffffffffffffffffffffffff160361184b576040517f08c379a0000000000000000000000000000000000000000000000000000000008152600401611842906129de565b60405180910390fd5b611854816118f9565b50565b61185f6119bd565b73ffffffffffffffffffffffffffffffffffffffff1661187d6110f2565b73ffffffffffffffffffffffffffffffffffffffff16146118d3576040517f08c379a00000000000000000000000000000000000000000000000000000000081526004016118ca90612a4a565b60405180910390fd5b565b6001816000016000828254019250508190555050565b600081600001549050919050565b60008060009054906101000a900473ffffffffffffffffffffffffffffffffffffffff169050816000806101000a81548173ffffffffffffffffffffffffffffffffffffffff021916908373ffffffffffffffffffffffffffffffffffffffff1602179055508173ffffffffffffffffffffffffffffffffffffffff168173ffffffffffffffffffffffffffffffffffffffff167f8be0079c531659141344cd1fd0a4f28419497f9722a3daafe3b4186f6b6457e060405160405180910390a35050565b600033905090565b6000604051905090565b600080fd5b600080fd5b6000819050919050565b6119ec816119d9565b81146119f757600080fd5b50565b600081359050611a09816119e3565b92915050565b600060208284031215611a2557611a246119cf565b5b6000611a33848285016119fa565b91505092915050565b600080fd5b600080fd5b6000601f19601f8301169050919050565b7f4e487b7100000000000000000000000000000000000000000000000000000000600052604160045260246000fd5b611a8f82611a46565b810181811067ffffffffffffffff82111715611aae57611aad611a57565b5b80604052505050565b6000611ac16119c5565b9050611acd8282611a86565b919050565b600067ffffffffffffffff821115611aed57611aec611a57565b5b611af682611a46565b9050602081019050919050565b82818337600083830152505050565b6000611b25611b2084611ad2565b611ab7565b905082815260208101848484011115611b4157611b40611a41565b5b611b4c848285611b03565b509392505050565b600082601f830112611b6957611b68611a3c565b5b8135611b79848260208601611b12565b91505092915050565b60008060408385031215611b9957611b986119cf565b5b6000611ba7858286016119fa565b925050602083013567ffffffffffffffff811115611bc857611bc76119d4565b5b611bd485828601611b54565b9150509250929050565b600073ffffffffffffffffffffffffffffffffffffffff82169050919050565b6000611c0982611bde565b9050919050565b611c1981611bfe565b8114611c2457600080fd5b50565b600081359050611c3681611c10565b92915050565b600060208284031215611c5257611c516119cf565b5b6000611c6084828501611c27565b91505092915050565b600080600080600060a08688031215611c8557611c846119cf565b5b600086013567ffffffffffffffff811115611ca357611ca26119d4565b5b611caf88828901611b54565b955050602086013567ffffffffffffffff811115611cd057611ccf6119d4565b5b611cdc88828901611b54565b945050604086013567ffffffffffffffff811115611cfd57611cfc6119d4565b5b611d0988828901611b54565b9350506060611d1a888289016119fa565b9250506080611d2b888289016119fa565b9150509295509295909350565b600081519050919050565b600082825260208201905092915050565b6000819050602082019050919050565b611d6d816119d9565b82525050565b606082016000820151611d896000850182611d64565b506020820151611d9c6020850182611d64565b506040820151611daf6040850182611d64565b50505050565b6000611dc18383611d73565b60608301905092915050565b6000602082019050919050565b6000611de582611d38565b611def8185611d43565b9350611dfa83611d54565b8060005b83811015611e2b578151611e128882611db5565b9750611e1d83611dcd565b925050600181019050611dfe565b5085935050505092915050565b60006020820190508181036000830152611e528184611dda565b905092915050565b60008115159050919050565b611e6f81611e5a565b82525050565b6000602082019050611e8a6000830184611e66565b92915050565b60008060408385031215611ea757611ea66119cf565b5b6000611eb5858286016119fa565b9250506020611ec6858286016119fa565b9150509250929050565b611ed9816119d9565b82525050565b600081519050919050565b600082825260208201905092915050565b60005b83811015611f19578082015181840152602081019050611efe565b60008484015250505050565b6000611f3082611edf565b611f3a8185611eea565b9350611f4a818560208601611efb565b611f5381611a46565b840191505092915050565b6000606082019050611f736000830186611ed0565b8181036020830152611f858185611f25565b9050611f946040830184611ed0565b949350505050565b600061010082019050611fb2600083018b611ed0565b8181036020830152611fc4818a611f25565b90508181036040830152611fd88189611f25565b90508181036060830152611fec8188611f25565b9050611ffb6080830187611ed0565b61200860a0830186611ed0565b61201560c0830185611e66565b61202260e0830184611ed0565b9998505050505050505050565b60006020820190506120446000830184611ed0565b92915050565b60008060408385031215612061576120606119cf565b5b600061206f85828601611c27565b9250506020612080858286016119fa565b9150509250929050565b61209381611bfe565b82525050565b60006020820190506120ae600083018461208a565b92915050565b60006060820190506120c96000830186611ed0565b6120d66020830185611ed0565b6120e36040830184611ed0565b949350505050565b60008060408385031215612102576121016119cf565b5b6000612110858286016119fa565b925050602061212185828601611c27565b9150509250929050565b7f4e6f7420617574686f72697a6564000000000000000000000000000000000000600082015250565b6000612161600e83611eea565b915061216c8261212b565b602082019050919050565b6000602082019050818103600083015261219081612154565b9050919050565b7f456c656374696f6e20646f6573206e6f74206578697374000000000000000000600082015250565b60006121cd601783611eea565b91506121d882612197565b602082019050919050565b600060208201905081810360008301526121fc816121c0565b9050919050565b7f456c656374696f6e207374696c6c206163746976650000000000000000000000600082015250565b6000612239601583611eea565b915061224482612203565b602082019050919050565b600060208201905081810360008301526122688161222c565b9050919050565b7f456c656374696f6e206973206e6f742061637469766500000000000000000000600082015250565b60006122a5601683611eea565b91506122b08261226f565b602082019050919050565b600060208201905081810360008301526122d481612298565b9050919050565b7f4e487b7100000000000000000000000000000000000000000000000000000000600052601160045260246000fd5b6000612315826119d9565b91507fffffffffffffffffffffffffffffffffffffffffffffffffffffffffffffffff8203612347576123466122db565b5b600182019050919050565b7f4e487b7100000000000000000000000000000000000000000000000000000000600052602260045260246000fd5b6000600282049050600182168061239957607f821691505b6020821081036123ac576123ab612352565b5b50919050565b60008190508160005260206000209050919050565b60006020601f8301049050919050565b600082821b905092915050565b6000600883026124147fffffffffffffffffffffffffffffffffffffffffffffffffffffffffffffffff826123d7565b61241e86836123d7565b95508019841693508086168417925050509392505050565b6000819050919050565b600061245b612456612451846119d9565b612436565b6119d9565b9050919050565b6000819050919050565b61247583612440565b61248961248182612462565b8484546123e4565b825550505050565b600090565b61249e612491565b6124a981848461246c565b505050565b5b818110156124cd576124c2600082612496565b6001810190506124af565b5050565b601f821115612512576124e3816123b2565b6124ec846123c7565b810160208510156124fb578190505b61250f612507856123c7565b8301826124ae565b50505b505050565b600082821c905092915050565b600061253560001984600802612517565b1980831691505092915050565b600061254e8383612524565b9150826002028217905092915050565b61256782611edf565b67ffffffffffffffff8111156125805761257f611a57565b5b61258a8254612381565b6125958282856124d1565b600060209050601f8311600181146125c857600084156125b6578287015190505b6125c08582612542565b865550612628565b601f1984166125d6866123b2565b60005b828110156125fe578489015182556001820191506020850194506020810190506125d9565b8683101561261b5784890151612617601f891682612524565b8355505b6001600288020188555050505b505050505050565b6000602082019050818103600083015261264a8184611f25565b905092915050565b7f43616e6e6f742072656d6f76652073656c660000000000000000000000000000600082015250565b6000612688601283611eea565b915061269382612652565b602082019050919050565b600060208201905081810360008301526126b78161267b565b9050919050565b7f53746172742074696d65206d75737420626520696e2066757475726500000000600082015250565b60006126f4601c83611eea565b91506126ff826126be565b602082019050919050565b60006020820190508181036000830152612723816126e7565b9050919050565b7f456e642074696d65206d7573742062652061667465722073746172742074696d60008201527f6500000000000000000000000000000000000000000000000000000000000000602082015250565b6000612786602183611eea565b91506127918261272a565b604082019050919050565b600060208201905081810360008301526127b581612779565b9050919050565b7f456c656374696f6e206e6f742073746172746564000000000000000000000000600082015250565b60006127f2601483611eea565b91506127fd826127bc565b602082019050919050565b60006020820190508181036000830152612821816127e5565b9050919050565b7f456c656374696f6e20656e646564000000000000000000000000000000000000600082015250565b600061285e600e83611eea565b915061286982612828565b602082019050919050565b6000602082019050818103600083015261288d81612851565b9050919050565b7f416c726561647920766f74656420696e207468697320656c656374696f6e0000600082015250565b60006128ca601e83611eea565b91506128d582612894565b602082019050919050565b600060208201905081810360008301526128f9816128bd565b9050919050565b7f496e76616c69642063616e646964617465204944000000000000000000000000600082015250565b6000612936601483611eea565b915061294182612900565b602082019050919050565b6000602082019050818103600083015261296581612929565b9050919050565b7f4f776e61626c653a206e6577206f776e657220697320746865207a65726f206160008201527f6464726573730000000000000000000000000000000000000000000000000000602082015250565b60006129c8602683611eea565b91506129d38261296c565b604082019050919050565b600060208201905081810360008301526129f7816129bb565b9050919050565b7f4f776e61626c653a2063616c6c6572206973206e6f7420746865206f776e6572600082015250565b6000612a34602083611eea565b9150612a3f826129fe565b602082019050919050565b60006020820190508181036000830152612a6381612a27565b905091905056fea264697066735822122023c3e415f4adffdcc31940e0e1e6484cbc546ba5fd2d46b62be52b13601fbc9264736f6c634300081c0033",
  "linkReferences": {},
  "deployedLinkReferences": {}
}